:020000040800F2
:1000000028450120F1020008150800080D08000825
:100010001108000831070008550E00080000000014
:100020000000000000000000000000003102000895
:1000300035070008000000008D020008B90A00081A
:100040000B0300080B0300080B0300080B03000858
:100050000B0300080B0300080B0300080B03000848
:100060000B0300080B0300080B0300080B03000838
:100070000B0300080B0300080B0300080B03000828
:100080000B0300080B0300080B0300080B03000818
:100090000B0300080B0300080B0300080B03000808
:1000A0000B0300080B0300080B0300080B030008F8
:1000B0000B0300080B0300080B0300080B030008E8
:1000C0000B0300080B0300080B0300080B030008D8
:1000D0000B030008550B00080B0300080B03000876
:1000E0000B0300080B0300080B0300080B030008B8
:1000F0000B0300080B0300080B0300080B030008A8
:100100000B0300080B0300080B0300080B03000897
:100110000B0300080B0300080B0300080B03000887
:100120000B0300080B0300080B0300080B03000877
:100130000B0300080B0300080B0300080B03000867
:100140000B0300080B0300080B0300080B03000857
:100150000B0300080B0300080B0300080B03000847
:100160000B0300080B0300080B0300080B03000837
:100170000B0300080B0300080B0300080B03000827
:100180000B0300080B03000800F002F800F041F830
:100190000AA090E8000C82448344AAF10107DA45E2
:1001A00001D100F036F8AFF2090EBAE80F0013F0F3
:1001B000010F18BFFB1A43F001031847A0260000E7
:1001C000C0260000103A24BF78C878C1FAD8520778
:1001D00024BF30C830C144BF04680C6070470000C1
:1001E0000023002400250026103A28BF78C1FBD840
:1001F000520728BF30C148BF0B607047642900F028
:10020000D780002070471FB502F022FB1FBD10B53C
:1002100010BD00F05BFA1146FFF7F5FF00F064FE39
:1002200000F079FA03B4FFF7F2FF03BC00F014FE0C
:100230002C4B19680868B0E8F04F80F30988BFF3C9
:100240006F8F4FF0000080F31188704700000000AE
:1002500008480068006880F308884FF0000080F3C9
:10026000148862B661B6BFF34F8FBFF36F8F00DFA4
:1002700000BF00BF08ED00E0DFF80C00016841F4AA
:1002800070010160704700BF88ED00E0EFF3098066
:10029000BFF36F8F134B1A681EF0100F08BF20EDCD
:1002A000108A20E9F04F106009B44FF0500080F33D
:1002B0001188BFF34F8FBFF36F8F01F09DFD4FF09B
:1002C000000080F3118809BC19680868B0E8F04F95
:1002D0001EF0100F08BFB0EC108A80F30988BFF33E
:1002E0006F8F704740000020EFF3058070470000DB
:1002F0000948804709480047FEE7FEE7FEE7FEE7BA
:10030000FEE7FEE7FEE7FEE7FEE7FEE704480549F5
:10031000054A064B70470000ED0A000889010008F5
:1003200028310120284501202835012028350120C9
:100330000FB4044910B503AA029800F067F910BC85
:100340005DF814FB2C0000202DE9F0410E46044618
:10035000002020622046E168884730B3252805D078
:10036000D4E901219047206A401CF2E7E168204669
:1003700000278847050018D0A5F14100192802D8A8
:1003800020354FF400673246294620462760FFF7A4
:1003900035FF40B1012804D0F61D26F007060836C7
:1003A000D8E7361DD6E72846DAE7206ABDE8F081AF
:1003B0002DE9F0410646002410687529314616A53E
:1003C00010D0AFF30080002802DA404213A507E006
:1003D00031688A0701D512A502E0490704D511A5A5
:1003E000012401E0AFF3008000210A2206F1240776
:1003F00009E0B0FBF2FCB0FBF2F302FB1C00303072
:1004000078541846491C0028F3D123462A46304622
:10041000BDE8F04100F0A1B8000000002D00000090
:100420002B00000020000000032A40F2308010F072
:10043000030C00F0158011F8013BBCF1020F62447F
:1004400098BF11F801CB00F8013B38BF11F8013B10
:10045000A2F1040298BF00F801CB38BF00F8013BBD
:1004600011F0030300F0E480083AC0F0088051F86E
:10047000043B083A51F804CBA0E80810F5E7121D38
:100480005CBF51F8043B40F8043BAFF30080D20757
:1004900024BF11F8013B11F801CB48BF11F8012B23
:1004A00024BF00F8013B00F801CB48BF00F8012B46
:1004B000704702F0FF0343EA032242EA024200F0DF
:1004C00002B84FF000020429C0F0128010F0030CB3
:1004D00000F01B80CCF1040CBCF1020F18BF00F837
:1004E000012BA8BF20F8022BA1EB0C0100F00DB8E6
:1004F0005FEAC17C24BF00F8012B00F8012B48BF44
:1005000000F8012B70474FF0000200B513469446E7
:100510009646203922BFA0E80C50A0E80C50B1F15B
:100520002001BFF4F7AF090728BFA0E80C5048BF6F
:100530000CC05DF804EB890028BF40F8042B08BF0D
:10054000704748BF20F8022B11F0804F18BF00F809
:10055000012B70477047704770472DE9F0470D46F3
:1005600099469246044600F124080168880604D59D
:10057000E06921F01001216000E00120A84201DDC6
:10058000471B00E00027A1697A1902EB0900081A4D
:10059000A0612078C00602D42046AFF30080002678
:1005A00008E0D4E901211AF806009047206A401CAF
:1005B000761C20624E45F4DB2078C0060AD5204622
:1005C000AFF3008006E0D4E9012130209047206A93
:1005D000401C2062381EA7F10107F4DC07E0D4E9D3
:1005E000012118F805009047206A401C2062281E4F
:1005F000A5F10105F3DC2046AFF30080207800066A
:1006000002D50220BDE8F0870120FBE7074B70B55B
:100610000D467B4400F043F80446284600F052F8AB
:1006200010B14FF0FF3070BD204670BDB70800001C
:1006300010B5203AC0F00B80B1E81850203AA0E87D
:100640001850B1E81850A0E81850BFF4F5AF5FEAB1
:10065000027C24BFB1E81850A0E8185044BF18C964
:1006600018C0BDE810405FEA827C24BF51F8043B0B
:1006700040F8043B08BF7047D20728BF31F8023B5F
:1006800048BF11F8012B28BF20F8023B48BF00F8F3
:10069000012B704701694A1C02610878704700B558
:1006A0008FB0CDE901310021059105497944CDE9AB
:1006B000031011466846FFF747FE0FB000BD00006B
:1006C000E5FFFFFF007B00F080007047754600F0FB
:1006D0002BF8AE4605006946534620F007008546D4
:1006E00018B020B5FFF712FEBDE820404FF000061D
:1006F0004FF000074FF000084FF0000B21F007010A
:10070000AC46ACE8C009ACE8C009ACE8C009ACE84C
:10071000C0098D46704710B50446AFF300802046EF
:10072000BDE81040FFF77EBD00487047C43001208F
:1007300000BFFEE77047F0B50A4600210023002401
:1007400000BF3DE0012505FA01F3156805EA030441
:100750009C4234D105684F000326BE40B543056076
:1007600015794E00B5400668354305601579012DB1
:1007700002D01579022D16D185684F000326BE40A0
:10078000B543856055794E00B54086683543856030
:10079000456801268E40B5434560456896798E4090
:1007A000B6B235434560C5684F000326BE40B54329
:1007B000C560D5794E00B540C6683543C560491C53
:1007C0001029BFD3F0BDF0B5002300244D07ED0E76
:1007D00002FA05F3CE1000F1200555F826504E0719
:1007E000F70E0F26BE40B543CF1000F1200646F8A5
:1007F0002750CE1000F1200555F8265045EA030495
:10080000CE1000F1200545F82640F0BD00BFFEE700
:1008100000BFFEE77047000070B5002100230F22E3
:10082000C4781CB3174C246804F4E064C4F5E06495
:10083000C4F30721C1F10404E3B20A4144789C40A7
:10084000E1B28478144021430C07210E0E4C057848
:100850006155047804F01F050124AC4005786D1142
:10086000AD0005F1E025C5F8004109E0047804F089
:100870001F050124AC40054D0678761145F8264049
:1008800070BD00000CED00E000E400E080E100E05D
:1008900002490143024A1160704700000000FA0556
:1008A0000CED00E029B1064A12680243044B1A60BD
:1008B00004E0034A12688243014B1A60704700004B
:1008C0003038024029B1064A12680243044B1A60CC
:1008D00004E0034A12688243014B1A60704700002B
:1008E00044380240F0B500210022002402250026F1
:1008F0000223324F3F6807F00C0121B1042905D0D3
:10090000082937D105E02E4F076036E02D4F0760EC
:1009100033E02A4F3F1F3F68C7F38056274F3F1FE2
:100920003F6807F03F036EB1264FB7FBF3F7DFF8E0
:100930008CC0ACF1040CDCF800C0CCF3881C07FBC5
:100940000CF40CE01E4FB7FBF3F7DFF870C0ACF10E
:10095000040CDCF800C0CCF3881C07FB0CF4174F28
:100960003F1F3F68C7F301477F1C7D00B4FBF5F7CD
:10097000076002E0124F076000BF00BF0F4F3F68E3
:1009800007F0F0010909104F7A5C0768D74047600B
:100990000A4F3F6807F4E051890A0B4F7A5C4768B9
:1009A000D7408760054F3F6807F46041490B064F09
:1009B0007A5C4768D740C760F0BD00000838024045
:1009C0000024F40000127A001C0000200CB5002066
:1009D000019000903448006840F48030324908604B
:1009E00000BF3148006800F4003000900198401CBE
:1009F0000190009818B90198B0F5A04FF1D12A489C
:100A0000006800F4003010B10120009001E00020E7
:100A100000900098012846D123484030006840F0FB
:100A200080502149403108602048006840F440402F
:100A30001E4908601C48083000681B4908310860DE
:100A40000846006840F4004008600846006840F42A
:100A5000A05008601648091F0860081F006840F091
:100A60008070091F086000BF0F48006800F0007028
:100A70000028F9D040F205700E4908600A48083095
:100A8000006820F003000849083108600846006843
:100A900040F00200086000BF03480830006800F022
:100AA0000C000828F8D10CBD00380240007000404E
:100AB00008544007003C024010B500BF502080F3AE
:100AC0001188BFF34F8FBFF36F8F00BF01F076FC2B
:100AD00018B14FF080500449086000BF002080F337
:100AE000118800BF10BD000004ED00E010B51548EE
:100AF000006840F47000134908601348006840F033
:100B000001001149086000200F49083108600E48B3
:100B100000680E4908400C4908600D48091D08602E
:100B2000081F006820F48020091F08600020064983
:100B30000C310860FFF74AFF4FF00060014980392F
:100B4000086010BD88ED00E000380240FFFFF6FEAF
:100B50001030002410B540F225511D4800F0B1F8C6
:100B600010B31B4800F071F9C4B21A48008800F4B1
:100B70000040C8B91748008800F4804060B10A2CD2
:100B800003D000201349088020E01248008840F478
:100B900000401049088019E00D2C06D10D4800884E
:100BA00040F480400B49088010E00A480088C0F3F8
:100BB0000D0009490C5407480088401C054908806D
:100BC00008460088C72801DD0020088010BD00000D
:100BD0000010014030000020B000002010B588B0A7
:100BE000044601210846FFF75DFE01211020FFF7B2
:100BF00069FE072209212648FFF7E5FD07220A21A1
:100C00002348FFF7E0FD4FF4C060069002208DF806
:100C10001C008DF81D0000208DF81E0001208DF8AD
:100C20001F0006A91A48FFF786FD0121194800F0A8
:100C300001F902940020ADF80C00ADF80E00ADF8FB
:100C40001000ADF814000C20ADF8120002A91148F4
:100C500000F086F801210F4800F027F840210D48E8
:100C600000F01AF8012240F225510A4800F053F82A
:100C700025208DF8040003208DF805008DF806006E
:100C800001208DF8070001A8FFF7C6FD08B010BDD0
:100C9000000002400010014001F40072B2F5007F34
:100CA00000D100BFCA430280704721B1828942F45B
:100CB0000052828104E082894DF6FF731A408281DE
:100CC000704770B50246002400230025002040F63E
:100CD0006A16B14200D100BFC1F3421501F01F03F3
:100CE000012606FA03F3012D02D19689334006E06E
:100CF000022D02D1168A334001E0968A33400C124D
:100D0000012606FA04F41688344013B10CB1012010
:100D100000E0002070BDF0B5034600240026002549
:100D2000002040F66A17B94200D100BF1846C1F34F
:100D3000421401F01F06012707FA06F5012C01D124
:100D40000C3004E0022C01D1103000E014301AB154
:100D500007682F43076002E00768AF430760F0BDF4
:100D60002DE9FF4705460E460024A14600BFA046D8
:100D7000B08900B100BF2C8A24F44054F0880443A9
:100D80002C82AC8941F20C608443B08831890843DD
:100D9000718908430443AC81AC8A24F44074B0895F
:100DA0000443AC826846FFF79DFD2048854202D08F
:100DB0001F48854202D1DDF80C9001E0DDF8089073
:100DC000A88900F4004040B109EBC90000EB09100C
:100DD00031684900B0FBF1F707E009EBC90000EB0F
:100DE000091031688900B0FBF1F76420B7FBF0F01F
:100DF00004012009642101FB1078A88900F4004057
:100E000040B1322000EBC800B0FBF1F000F0070069
:100E1000044308E0322000EB08106421B0FBF1F03D
:100E200000F00F0004432C81BDE8FF870010014053
:100E30000014014021B1828942F40042828103E022
:100E40008289C2F30E028281704701468888C0F30E
:100E50000800704700BFFEE700BF7047002400BFD6
:100E6000214604A0FFF764FA4FF47A7000F0E0FE28
:100E7000641CF5E76170705F7461736B3120697396
:100E80002072756E6E696E672025642E2E2E0D0AF7
:100E900000000000002400BF214604A0FFF748FA2C
:100EA0004FF47A7000F0C4FE641CF5E76170705F67
:100EB0007461736B322069732072756E6E696E6730
:100EC0002025642E2E2E0D0A0000000000BF054ACA
:100ED000128802F04002002AF9D0C2B2014B9A8077
:100EE00070470000001001401CB54FF44070FFF740
:100EF000CFFC4FF4E130FFF771FE0DA0FFF718FAB9
:100F00000F48022100230A02CDE900100DA110486C
:100F100001F00AFA0F48022100230A02CDE900106D
:100F20000DA1104801F000FA00F010FF00201CBDD8
:100F30007374617274696E672E2E2E0D0A000000A4
:100F4000000000206170705F7461736B31000000FD
:100F50005D0E0008040000206170705F7461736BA7
:100F600032000000950E00082DE9F04105460E46BE
:100F70002648076826480068001D00F023FD50B988
:100F80002348006890F82C10012088402149096806
:100F9000814320480160681CD8B9D6B11E49486811
:100FA0001B49096888601A4982680968CA6018493B
:100FB0000968091D8268516015490968091D816029
:100FC000154A134909684A6111460968491C1160AC
:100FD0001AE07C190E4800684460BC4207D20C48F5
:100FE0000168091D0D48006800F010FD0CE008487C
:100FF0000168091D0A48006800F008FD09480068FA
:10100000844201D207480460BDE8F081540000200A
:1010100040000020580000208804002048000020E4
:10102000440000207000002010B5044600F008FDC8
:1010300031480068401C304908603048006840B9B9
:101040002E4804600846006801280DD100F0B2F96E
:101050000AE02B48006838B928480068C06AE16A8D
:10106000884201D82548046026480068401C25496C
:10107000086008460068206494F82C10012088401D
:1010800021490968084320490860E16A01EB8101B0
:101090001E4A02EB81014868A0608268E260211D5F
:1010A000826851608160E16A01EB8101174A02EBBD
:1010B00081026261E16A01EB8101144A52F8211058
:1010C000491CE26A02EB8202104B43F8221000F046
:1010D000E1FC0B48006868B108480068C06AE16A32
:1010E000884207D24FF0805009490860BFF34F8F04
:1010F000BFF36F8F10BD00005000002040000020A3
:101100005C0000206C00002058000020B801002086
:1011100004ED00E010B500F093FC10480068D0B971
:101120000F4800F063FC0F4800F060FC0C480E49CB
:1011300008600C480D49086000220C210A2000F0CC
:1011400055FF064908600846006820B108A1034819
:10115000006800F017FD00F09DFC10BD8800002025
:101160009C040020B00400208000002084000020A7
:10117000546D72510000000010B516E000F060FCE4
:101180000C48C068C468201D00F01CFC0A480068B8
:10119000401E0949086009480068401E0749086068
:1011A00000F078FC204600F020F804480068002891
:1011B000E4D110BD74040020500000204C00002039
:1011C00070B504460D46206C70B1216CE068014496
:1011D000E160D4E90210884201D32168E160284629
:1011E000226CE168FFF720F970BD10B50446206B52
:1011F00000F06EFC204600F06BFC10BD0146084A72
:10120000126812680AB9012200E000220A600A6826
:1012100022B9034A1268D268106800E000207047C3
:101220008000002030B54FF49633154800F00704D5
:101230002CB1C01D20F00700114C041B1B1B0246E3
:10124000104C226000240F4D6C60D018083820F03C
:1012500007000D4C206000240B4D2D686C600A4D7A
:101260002D682C601146441A4C60074C24680C60B1
:10127000064D4C682C60064D4C682C6030BD00005B
:10128000C4040020940000209C000020A400002042
:10129000A000002000BFFFF76FFF0648006801288C
:1012A000F9D94FF0805004490860BFF34F8FBFF366
:1012B0006F8FF0E7B801002004ED00E02DE9F04168
:1012C00006460D4617469846069C0DB9246000E078
:1012D0002760E66325640121204600F0BBFE84F808
:1012E0004C80BDE8F0812DE9F05F82460F469046C4
:1012F0009B460A9E0C9C4FEA8801A522206BFFF7B3
:10130000D8F8A8F10100216B01EB800929F0070949
:1013100009F0070008B9012000E0002050B900BF23
:10132000502080F31188BFF34F8FBFF36F8F00BF42
:1013300000BFFEE77FB1002507E0795D04F13400CE
:101340004155785D00B902E06D1C0A2DF5D300BF50
:1013500000213D200155202E01D2012000E0002077
:1013600050B900BF502080F31188BFF34F8FBFF3F7
:101370006F8F00BF00BFFEE7202E00D31F26E6625E
:10138000A664201D00F03FFB04F1180000F03BFBB9
:101390002461C6F12000A06164625A465146484665
:1013A00000F0FAFA20600B9808B10B980460BDE8D1
:1013B000F09F000010B5002407E004EB84010F4A01
:1013C00002EB810000F012FB641C202CF5D30C48CA
:1013D00000F00CFB0B4800F009FB0B4800F006FB8B
:1013E0000A4800F003FB0A4800F000FB04480949E2
:1013F000086004480849086010BD0000B8010020DA
:10140000380400204C0400206004002074040020F4
:1014100088040020440000204800002010B5014648
:10142000164800E0006803688B42FBD3024643681D
:1014300013448B4204D143684C6823444360014603
:101440000A464B6813440468A34211D10C4C03684C
:101450002468A34208D04B680468646823444B6046
:1014600003681B680B6005E0054B1B680B6001E01F
:1014700003680B60884200D0016010BD940000201A
:101480009C0000202DE9F04104460D4616461F46FB
:101490004FF0000865602461B5420CD8F01BA169CB
:1014A000884202D34FF0010811E0211D094800686D
:1014B00000F0ACFA0BE0BE4204D2BD4202D34FF0C2
:1014C000010804E0211D0448006800F09FFA40462E
:1014D000BDE8F081840000208000002070B5054642
:1014E00000F0AEFAA86B08B9012400E0002400F077
:1014F000D1FA204670BD000070B505460E460E4874
:101500000068C068C468201D00F05CFA94F82800E8
:1015100000F0040028B132462946204600F0D6F8F3
:1015200005E094F8280000F0FE0084F8280020462A
:10153000216A884770BD0000800000207FB57FE0F1
:10154000019800287CDB039C606908B9012000E059
:10155000002010B9201D00F035FA684600F0E2F8CE
:10156000054601980A2869D2DFE800F06805072ED1
:10157000365806082F3700BF00BF00BF94F8280078
:1015800040F0010084F828000298A26981180346FF
:101590002A462046FFF776FFA8B194F8280000F00D
:1015A000040038B10298A26981182A46204600F04A
:1015B0008DF805E094F8280000F0FE0084F828007B
:1015C0002046216A88473AE000BF94F8280000F0DE
:1015D000FE0084F8280032E000BF94F8280040F0B4
:1015E000010084F828000298A061A06908B10120D8
:1015F00000E0002050B900BF502080F31188BFF3F5
:101600004F8FBFF36F8F00BF00BFFEE7A069411986
:101610002B462A462046FFF735FF10E094F82800B5
:1016200000F0020018B9204600F052FA05E094F8E4
:10163000280000F0FE0084F8280000E000BF00BF92
:10164000002201A90348006800F072FD00287FF421
:1016500077AF7FBD88000020F8B505460C4600F046
:10166000C3FB684600F05EF80646009820BB44B90C
:10167000B54206D801F004F831462846FFF73CFF92
:101680001CE03CB10E480068006808B9012000E089
:1016900000200446A91B22460A48006800F0A2FA6E
:1016A00000F0EEFF50B94FF0805007490860BFF3DB
:1016B0004F8FBFF36F8F01E000F0E2FFF8BD000035
:1016C000840000208800002004ED00E070B504468E
:1016D0000D46164604E0A06905442046216A884765
:1016E000A06941192B4632462046FFF7CBFE002861
:1016F000F1D170BD09480068006808B9012000E018
:10170000002020B14FF0FF300549086005E0034894
:101710000068C06800680249086070474400002003
:101720007000002070B5044600F042FE05460748F0
:101730000068854204D200F00BF80120206001E02F
:101740000020206001480560284670BD9000002000
:1017500070B508E00D480068C06804684FF0FF31BC
:101760002046FFF7C9FE09480068006808B9012053
:1017700000E000200028EDD0044805680448006817
:10178000024908600248056070BD0000800000202A
:10179000840000200E480068401C08B9012000E0C9
:1017A000002050B900BF502080F31188BFF34F8F45
:1017B000BFF36F8F00BF00BFFEE700BF502080F374
:1017C0001188BFF34F8FBFF36F8F00BF00BFFEE7DD
:1017D0003400002008B500BF6846FFF70FFD04463F
:1017E00020460099FFF738FFFFF7A8FEF4E770B531
:1017F000044600F025F994F9455010E0606A08B9F4
:10180000012000E0002038B904F1240000F0A8FE17
:1018100018B100F047FA00E003E0681E45B2002D61
:10182000ECDC00BFFF2084F8450000F033F900F045
:1018300007F994F9445010E0206908B9012000E04C
:10184000002048B904F1100000F08AFE08B100F051
:1018500029FA681E45B200E001E0002DECDC00BF73
:10186000FF2084F8440000F015F970BD2DE9F04721
:1018700005464FF0000900F0B7FA4248006808B981
:10188000FFF7D0FC75B105F00700C0F11008C8F1F2
:10189000FF30A84201D2012000E0002008B94544F1
:1018A00000E00025012000EBE570002853D0002D5A
:1018B00051D03548006885424DD8344E30460468D2
:1018C00001E0264624686068A84202D22068002809
:1018D000F7D12C48006884423DD0306800F10809F7
:1018E000206830606068401B102819D9671907F01C
:1018F000070008B9012000E0002050B900BF5020C7
:1019000080F31188BFF34F8FBFF36F8F00BF00BF0D
:10191000FEE76068401B786065603846FFF77EFD33
:10192000194960680968081A17490860084600687C
:1019300017490968884203D21348006814490860AF
:10194000606840F00040606000202060114800683E
:10195000401C1049086000F093FE09F0070008B928
:10196000012000E0002050B900BF502080F3118812
:10197000BFF34F8FBFF36F8F00BF00BFFEE7484636
:10198000BDE8F0879C000020A0000020940000200B
:10199000A4000020A8000020001F4FF08073036007
:1019A000001F21F001030360001F054B0360143882
:1019B0000260001F6FF002030360203870470000D0
:1019C0009517000801460A69D1E901309860D1E90C
:1019D000010358605068884201D188685060002037
:1019E00008611068401E10601068704700F108011F
:1019F00041604FF0FF31816000F10801C160016179
:101A000000210160704700210161704710B5024656
:101A10000B685C1C0CB9106907E002F1080000E0DB
:101A20004068446824689C42FAD944684C604C6819
:101A3000A160886041600A611468641C146010BD74
:101A400000BF502080F31188BFF34F8FBFF36F8F1B
:101A500000BF0E480068401C0C490860084600683A
:101A6000012812D10A480068C0B208B9012000E07C
:101A7000002050B900BF502080F31188BFF34F8F72
:101A8000BFF36F8F00BF00BFFEE770473400002038
:101A900004ED00E00D48006850B900BF502080F30D
:101AA0001188BFF34F8FBFF36F8F00BF00BFFEE7FA
:101AB00006480068401E054908600846006820B9CD
:101AC000002080F3118800BF00BF70473400002061
:101AD00070B506463546002E3BD0083D2C46606862
:101AE000C00F50B900BF502080F31188BFF34F8F53
:101AF000BFF36F8F00BF00BFFEE7206808B9012069
:101B000000E0002050B900BF502080F31188BFF3DF
:101B10004F8FBFF36F8F00BF00BFFEE76068C00F3D
:101B2000B8B12068A8B9606820F00040606000F09B
:101B30005BF908496068096808440649086020465E
:101B4000FFF76CFC04480068401C0349086000F083
:101B500097FD70BDA0000020AC00002000204FF0D9
:101B6000E02108618861064800684FF47A71B0FB93
:101B7000F1F0401E4FF0E0214861072008617047F6
:101B80000800002030B502460B46002152B900BFC4
:101B9000502484F31188BFF34F8FBFF36F8F00BFC2
:101BA00000BFFEE7BBB1002012E00D4C04EBC00407
:101BB0006468944203D10A4C04EBC0010AE031B9D5
:101BC000074C54F8304014B9054C04EBC001401CDC
:101BD0000828EAD300BF09B10B604A6030BD00009D
:101BE000780100202DE9F04105460E4617462C46A7
:101BF000FFF726FF94F94400401C10B9002084F838
:101C0000440094F94500401C10B9002084F84500B8
:101C1000FFF740FFA06B28B93A46314604F1240093
:101C200000F062F82046FFF7E2FDBDE8F081000019
:101C300070B504460025D4B11248006808B90120E7
:101C400000E0002050B900BF502080F31188BFF39E
:101C50004F8FBFF36F8F00BF00BFFEE700F0C4F8E7
:101C600000212046FFF780F900F00AFD05463DB946
:101C70004FF0805004490860BFF34F8FBFF36F8F60
:101C800070BD00007C00002004ED00E003490968FD
:101C90000160034909684160704700006800002046
:101CA00054000020012001490860704764000020B2
:101CB00070B504460D4654B900BF502080F311881A
:101CC000BFF34F8FBFF36F8F00BF00BFFEE7054824
:101CD000016818312046FFF799FE01212846FFF7D9
:101CE00043F970BD4000002070B504460E4615460D
:101CF00054B900BF502080F31188BFF34F8FBFF35A
:101D00006F8F00BF00BFFEE760680F490968C861B8
:101D10000D49826809680A620B49096818318268AE
:101D200051600949096818318160074909688C6266
:101D30002168491C21600DB14FF0FF36294630461D
:101D4000FFF712F970BD0000400000201CB51E48CE
:101D500000210B468222CDE900101CA11D4800F095
:101D6000E3FA0446012C02D100F046FD0446012CA2
:101D700015D100BF502080F31188BFF34F8FBFF300
:101D80006F8F00BF4FF0FF301349086001201349E7
:101D9000086000201249086000F074F810E0601C30
:101DA00008B1012000E0002050B900BF502080F3AE
:101DB0001188BFF34F8FBFF36F8F00BF00BFFEE7E7
:101DC000084800681CBD00007400002049444C45D0
:101DD0000000000095120008700000205C00002048
:101DE000540000207800002002480068401C01498F
:101DF000086070477C0000201D48006818B1012071
:101E00001C49086032E000201A4908601A4800683E
:101E1000B0FA80F0C0F11F0101EB8100174A52F8BF
:101E2000200008B1012000E0002050B900BF502080
:101E300080F31188BFF34F8FBFF36F8F00BF00BFD8
:101E4000FEE701EB81020D4B03EB82004268526812
:101E5000426000F108024368934202D1426852682E
:101E600042604268D268064B1A6000BF70470000AB
:101E70007C0000206400002058000020B8010020F1
:101E8000400000201CB5524800685249884201D0E9
:101E9000012000E0002050B900BF502080F31188DD
:101EA000BFF34F8FBFF36F8F00BF00BFFEE74848FF
:101EB00000684849491E884201D0012000E0002006
:101EC00050B900BF502080F31188BFF34F8FBFF38C
:101ED0006F8F00BF00BFFEE73F49084600780190C2
:101EE000FF200A4610700846007800909DF8000018
:101EF00000F0F0009DF80020904201D1012000E0A8
:101F0000002050B900BF502080F31188BFF34F8FDD
:101F1000BFF36F8F00BF00BFFEE79DF8000000F029
:101F200050002E4A107007202D4A106009E02C48FE
:101F30000068401E2A4A10609DF800004006000E0E
:101F400000909DF8000000F080008028EFD0244829
:101F50000068C0F10700042801D1012000E0002042
:101F600050B900BF502080F31188BFF34F8FBFF3EB
:101F70006F8F00BF00BFFEE7194800680002184AD3
:101F800010601046008800F4E0601060124A01986A
:101F900010700F482030006840F470000C49203168
:101FA00008600846006840F070400860FFF7D6FD02
:101FB00000200C490860FEF75FF90B48006840F00C
:101FC000404009490860FEF743F900201CBD0000AD
:101FD00000ED00E071C20F4100E400E03800002095
:101FE0003C0000203400002034EF00E02DE9F843ED
:101FF00005460E4617460024E5B1601EB0FBF5F01D
:10200000B04217D305FB06F010F1510F12D805FBB3
:1020100006F808F15000FFF729FC0446B4B1A146C8
:1020200009F150093B464A46314628460094FFF7DD
:1020300045F90BE054B900BF502080F31188BFF37D
:102040004F8FBFF36F8F00BF00BFFEE72046BDE894
:10205000F88300002DE9F04105460E4601272C4685
:1020600054B900BF502080F31188BFF34F8FBFF3E6
:102070006F8F00BF00BFFEE7002C42D0E06B00284E
:102080003FD04FF0FF31E06BB1FBF0F0216C8842A4
:1020900037D3FFF7D5FCD4E90F12206801FB02000B
:1020A000A0600020A06320686060E06B401E226C8E
:1020B000216800FB0211E160FF2084F8440084F8ED
:1020C00045009EB9206908B9012000E00020A8B9A8
:1020D00004F1100000F044FA80B14FF08050134931
:1020E0000860BFF34F8FBFF36F8F07E004F110005C
:1020F000FFF77CFC04F12400FFF778FCFFF7CAFC33
:1021000000E000270FB1012000E0002050B900BF1F
:10211000502080F31188BFF34F8FBFF36F8F00BF44
:1021200000BFFEE73846BDE8F081000004ED00E0A6
:102130002DE9F74183B005460E464FF000082C46C6
:1021400054B900BF502080F31188BFF34F8FBFF305
:102150006F8F00BF00BFFEE70EB9206C08B90120E9
:1021600000E0002050B900BF502080F31188BFF379
:102170004F8FBFF36F8F00BF00BFFEE700F008F97D
:1021800008B9059808B9012000E0002050B900BF47
:10219000502080F31188BFF34F8FBFF36F8F00BFC4
:1021A00000BFFEE700BFFFF74BFCA76BF7B131465E
:1021B0002046FFF705F8781EA063206908B90120C2
:1021C00000E0002060B904F1100000F0C9F938B156
:1021D0004FF080502F490860BFF34F8FBFF36F8FD0
:1021E000FFF758FC012006B0BDE8F081059818B94A
:1021F000FFF750FC0020F6E7B8F1000F04D101A86A
:10220000FFF744FD4FF00108FFF744FCFFF7ECFD3A
:10221000FFF716FC94F94400401C10B9002084F824
:10222000440094F94500401C10B9002084F8450092
:10223000FFF730FC05A901A800F02EF8F0B9204600
:10224000FFF74CF9A0B104F124000599FFF730FD28
:102250002046FFF7CCFA00F013FA0028A3D14FF084
:1022600080500C490860BFF34F8FBFF36F8F9AE720
:102270002046FFF7BCFA00F003FA94E72046FFF788
:10228000B6FA00F0FDF92046FFF728F900288AD0B9
:102290000020A8E704ED00E070B505460C4655B9EE
:1022A00000BF502080F31188BFF34F8FBFF36F8FB3
:1022B00000BF00BFFEE754B900BF502080F3118873
:1022C000BFF34F8FBFF36F8F00BF00BFFEE7FFF775
:1022D000B7FB134802686868131A2068401C08B9E5
:1022E000002619E00F4928680968884206D0686806
:1022F000904203D80126002020600DE0206898421B
:1023000007D92068C01A20602846FFF7BFFC0026C6
:1023100002E0002020600126FFF7BCFB304670BDC4
:1023200054000020680000202DE9FF4F85B0804652
:1023300089461746DDE912ABB800FFF797FA064663
:1023400076B15820FFF792FA04462CB15821204666
:10235000FEF7D9F8266304E03046FFF7B9FB00E04A
:1023600000247CB10020CDE900ABCDE902403A4623
:1023700049464046089BFEF7B6FF2046FEF754FE4E
:10238000012501E04FF0FF35284609B0BDE8F08F88
:102390000549096809B9012005E00449096809B936
:1023A000022000E0002070475C0000207C0000203C
:1023B0000149086870470000540000202DE9F041F1
:1023C0004FF000085B48006800287DD15A4800683B
:1023D000451C5948056015BB58480068006808B995
:1023E000012000E0002050B900BF502080F3118888
:1023F000BFF34F8FBFF36F8F00BF00BFFEE74F48A3
:1024000007684F4800684D4908604D4807604D48CF
:102410000068401C4B490860FFF76CF900BF4A4850
:102420000068854277D300BF44480068006808B957
:10243000012000E0002020B14FF0FF304249086049
:1024400068E03E480068C068C4686668B54202D269
:102450003D4806605EE06069D4E902128A60D4E912
:1024600002214A60211D42688A4201D1E16841602F
:10247000002262610168491E0160A06A98B1A06AE9
:10248000D4E907128A60D4E907214A6004F11801EF
:1024900042688A4201D1216A41600022A262016839
:1024A000491E016000BF94F82C1001208840274984
:1024B0000968084325490860E16A01EB8101244A63
:1024C00002EB8101486800E02BE0A0608268E260D6
:1024D000211D826851608160E16A01EB81011C4A23
:1024E00002EB81026261E16A01EB8101184A52F854
:1024F0002110491CE26A02EB8202154B43F82210BC
:102500001449E06A0968C96A88428DD94FF0010808
:102510008AE700E000BF1048006808B14FF00108EA
:1025200004E00E480068401C0C4908604046BDE8C5
:10253000F08100007C0000205400002044000020B6
:102540004800002068000020700000205800002093
:10255000B80100204000002064000020600000203E
:1025600070B50346D868C16851B900BF502080F3E8
:102570001188BFF34F8FBFF36F8F00BF00BFFEE71F
:10258000886AD1E90745A560D1E90754656001F182
:1025900018044568A54201D10C6A446000258D628B
:1025A0000468641E04603048006800283DD1486912
:1025B000D1E90245A560D1E9025465600C1D45686A
:1025C000A54201D1CC68446000254D610468641EB9
:1025D000046091F82C400120A040244C2468204342
:1025E000224C2060CC6A04EB8404214D05EB84046A
:1025F000606888608568CD600C1D85686C6084604B
:10260000CC6A04EB84041A4D05EB84054D61CC6A59
:1026100004EB8404164D55F82440641CCD6A05EB88
:102620008505134E46F8254010E0124C6068C861DD
:1026300085680D6201F1180485686C6084600D4D39
:102640008D622C462468641C2C6000BF0A4CC86A4A
:102650002468E46AA04204D901220120074C2060CA
:1026600000E00022104670BD7C00002058000020D1
:10267000B801002060040020400000206400002019
:1026800070B5002400265348006850B900BF5020A0
:1026900080F31188BFF34F8FBFF36F8F00BF00BF70
:1026A000FEE7FFF7CDF94B480068401E4949086036
:1026B0000846006800287DD147480068002879D086
:1026C0005BE04648C068C468A06AD4E907128A6023
:1026D000D4E907214A6004F1180142688A4201D115
:1026E000216A41600022A2620168491E016060699E
:1026F000D4E902128A60D4E902214A60211D4268AD
:102700008A4201D1E1684160002262610168491E8C
:10271000016094F82C100120884031490968084371
:102720002F490860E16A01EB81012E4A02EB810129
:102730004868A0608268E260211D82685160816003
:10274000E16A01EB8101274A02EB81026261E16AE1
:1027500001EB8101234A52F82110491CE26A02EB85
:102760008202204B43F822101F49E06A0968C96AB7
:10277000884202D301201D4908601848006808B942
:10278000012000E0002000289BD00CB1FEF7B2FF32
:102790001748056865B100BFFFF710FE10B10120B2
:1027A000124908606D1E002DF6D100201049086006
:1027B0000E4800E009E0006838B1012630070D49F5
:1027C0000860BFF34F8FBFF36F8FFFF763F9304699
:1027D00070BD00007C00002050000020600400203C
:1027E00058000020B80100204000002064000020B4
:1027F0006000002004ED00E01CB50024FEF78AFC18
:102800000E48006858B10E48022100234FF482722E
:10281000CDE900100BA10D48FFF786FD044654B921
:1028200000BF502080F31188BFF34F8FBFF36F8F2D
:1028300000BF00BFFEE720461CBD0000880000204E
:102840008C000020546D722053766300D517000869
:102850004FF04070E1EE100A704700007C2800083D
:1028600000000020B0000000C40100082C2900086E
:10287000B000002078440100E001000800000000E2
:1028800000000000007A030A0000000000000000C1
:102890000102030406070809000000000102030406
:1028A0000102030406070809000000000000000000
:1028B000AAAAAAAA00000000000000000000000070
:1028C0000000000000000000000000000000000008
:1028D00000000000000000000000000000000000F8
:1028E00000000000000000000000000000000000E8
:1028F000000000001F0000000000000000000000B9
:1029000000000000000000000000000000000000C7
:1029100000000000000000000000000000000000B7
:0C292000000000000000000000000000AB
:04000005080002F1FC
:00000001FF
